:100000000C9448000C9452000C9452000C94520032
:100010000C9452000C9452000C9452000C94520018
:100020000C9452000C9452000C9452000C94520008
:100030000C9452000C9452000C9452000C945200F8
:100040000C9452000C9452000C9452000C945200E8
:100050000C9452000C9452000C9452000C945200D8
:100060000C9452000C9452000C9452000C945200C8
:100070000C9452000C9452000C9452000C945200B8
:100080000C9452000C9452000C9452000C945200A8
:1000900011241FBECFEFCDBFDFE3DEBF0E946F0094
:1000A0000C94A5000C940000CF93DF93CDB7DEB77E
:1000B0002697CDBFDEBF8B839C836D837E832B8190
:1000C0003C818D819E81820F931F89839A838981D0
:1000D0009A812696CDBFDEBFDF91CF910895CF9351
:1000E000DF9300D000D0CDB7DEB763E070E085E0ED
:1000F00090E00E94540089839A8364E070E086E077
:1001000090E00E948D008B839C8380E090E0249699
:10011000CDBFDEBFDF91CF910895CF93DF9300D0A5
:1001200000D0CDB7DEB789839A836B837C83298126
:100130003A818B819C81A901481B590BCA012496E5
:0E014000CDBFDEBFDF91CF910895F894FFCFC1
:00000001FF
