S01700004763634170706C69636174696F6E312E737265635B
S11300000C9448000C9452000C9452000C9452002E
S11300100C9452000C9452000C9452000C94520014
S11300200C9452000C9452000C9452000C94520004
S11300300C9452000C9452000C9452000C945200F4
S11300400C9452000C9452000C9452000C945200E4
S11300500C9452000C9452000C9452000C945200D4
S11300600C9452000C9452000C9452000C945200C4
S11300700C9452000C9452000C9452000C945200B4
S11300800C9452000C9452000C9452000C945200A4
S113009011241FBECFEFCDBFDFE3DEBF0E946F0090
S11300A00C9483000C940000CF93DF93CDB7DEB79C
S11300B02697CDBFDEBF8B839C836D837E832B818C
S11300C03C818D819E81820F931F89839A838981CC
S11300D09A812696CDBFDEBFDF91CF910895CF934D
S11300E0DF9300D0CDB7DEB763E070E085E090E049
S11300F00E94540089839A8380E090E00F900F90CF
S10D0100DF91CF910895F894FFCF2A
S9030000FC
